{
  "contractName": "TodoList",
  "abi": [
    {
      "constant": true,
      "inputs": [
        {
          "name": "",
          "type": "uint256"
        }
      ],
      "name": "tasks",
      "outputs": [
        {
          "name": "id",
          "type": "uint256"
        },
        {
          "name": "content",
          "type": "string"
        },
        {
          "name": "completed",
          "type": "bool"
        },
        {
          "name": "deleted",
          "type": "bool"
        }
      ],
      "payable": false,
      "stateMutability": "view",
      "type": "function"
    },
    {
      "constant": true,
      "inputs": [],
      "name": "taskCount",
      "outputs": [
        {
          "name": "",
          "type": "uint256"
        }
      ],
      "payable": false,
      "stateMutability": "view",
      "type": "function"
    },
    {
      "inputs": [],
      "payable": false,
      "stateMutability": "nonpayable",
      "type": "constructor"
    },
    {
      "anonymous": false,
      "inputs": [
        {
          "indexed": false,
          "name": "id",
          "type": "uint256"
        },
        {
          "indexed": false,
          "name": "content",
          "type": "string"
        },
        {
          "indexed": false,
          "name": "completed",
          "type": "bool"
        },
        {
          "indexed": false,
          "name": "deleted",
          "type": "bool"
        }
      ],
      "name": "TaskCreated",
      "type": "event"
    },
    {
      "constant": false,
      "inputs": [
        {
          "name": "_content",
          "type": "string"
        }
      ],
      "name": "createTask",
      "outputs": [],
      "payable": false,
      "stateMutability": "nonpayable",
      "type": "function"
    },
    {
      "constant": true,
      "inputs": [],
      "name": "getListIDs",
      "outputs": [
        {
          "name": "",
          "type": "uint256[]"
        }
      ],
      "payable": false,
      "stateMutability": "view",
      "type": "function"
    },
    {
      "constant": false,
      "inputs": [
        {
          "name": "_id",
          "type": "uint256"
        }
      ],
      "name": "toggleCompleted",
      "outputs": [],
      "payable": false,
      "stateMutability": "nonpayable",
      "type": "function"
    },
    {
      "constant": false,
      "inputs": [
        {
          "name": "_id",
          "type": "uint256"
        }
      ],
      "name": "deleteTodo",
      "outputs": [],
      "payable": false,
      "stateMutability": "nonpayable",
      "type": "function"
    }
  ],
  "bytecode": "0x60806040526000805534801561001457600080fd5b506100596040518060400160405280600f81526020017f4275696c6420746f646f2064617070000000000000000000000000000000000081525061005e60201b60201c565b61027d565b604051806080016040528060005481526020018281526020016000151581526020016000151581525060016000805481526020019081526020016000206000820151816000015560208201518160010190805190602001906100c19291906101d8565b5060408201518160020160006101000a81548160ff02191690831515021790555060608201518160020160016101000a81548160ff0219169083151502179055509050507fd3b5ebbcee14df18f4cab0dc4d660788f6a8d81c06f14b96a8942de3e730f5186000548260008060405180858152602001806020018415151515815260200183151515158152602001828103825285818151815260200191508051906020019080838360005b8381101561018757808201518184015260208101905061016c565b50505050905090810190601f1680156101b45780820380516001836020036101000a031916815260200191505b509550505050505060405180910390a1600080815480929190600101919050555050565b828054600181600116156101000203166002900490600052602060002090601f016020900481019282601f1061021957805160ff1916838001178555610247565b82800160010185558215610247579182015b8281111561024657825182559160200191906001019061022b565b5b5090506102549190610258565b5090565b61027a91905b8082111561027657600081600090555060010161025e565b5090565b90565b6107bf8061028c6000396000f3fe608060405234801561001057600080fd5b50600436106100625760003560e01c8063111002aa14610067578063455f5024146101225780636e3c6738146101505780638d9776721461017e578063b6cb58a514610242578063dda3d92614610260575b600080fd5b6101206004803603602081101561007d57600080fd5b810190808035906020019064010000000081111561009a57600080fd5b8201836020820111156100ac57600080fd5b803590602001918460018302840111640100000000831117156100ce57600080fd5b91908080601f016020809104026020016040519081016040528093929190818152602001838380828437600081840152601f19601f8201169050808301925050505050505091929192905050506102bf565b005b61014e6004803603602081101561013857600080fd5b8101908080359060200190929190505050610439565b005b61017c6004803603602081101561016657600080fd5b810190808035906020019092919050505061048e565b005b6101aa6004803603602081101561019457600080fd5b81019080803590602001909291905050506104bf565b60405180858152602001806020018415151515815260200183151515158152602001828103825285818151815260200191508051906020019080838360005b838110156102045780820151818401526020810190506101e9565b50505050905090810190601f1680156102315780820380516001836020036101000a031916815260200191505b509550505050505060405180910390f35b61024a6105a1565b6040518082815260200191505060405180910390f35b6102686105a7565b6040518080602001828103825283818151815260200191508051906020019060200280838360005b838110156102ab578082015181840152602081019050610290565b505050509050019250505060405180910390f35b604051806080016040528060005481526020018281526020016000151581526020016000151581525060016000805481526020019081526020016000206000820151816000015560208201518160010190805190602001906103229291906106ee565b5060408201518160020160006101000a81548160ff02191690831515021790555060608201518160020160016101000a81548160ff0219169083151502179055509050507fd3b5ebbcee14df18f4cab0dc4d660788f6a8d81c06f14b96a8942de3e730f5186000548260008060405180858152602001806020018415151515815260200183151515158152602001828103825285818151815260200191508051906020019080838360005b838110156103e85780820151818401526020810190506103cd565b50505050905090810190601f1680156104155780820380516001836020036101000a031916815260200191505b509550505050505060405180910390a1600080815480929190600101919050555050565b6001600082815260200190815260200160002060020160009054906101000a900460ff16156001600083815260200190815260200160002060020160006101000a81548160ff02191690831515021790555050565b600180600083815260200190815260200160002060020160016101000a81548160ff02191690831515021790555050565b6001602052806000526040600020600091509050806000015490806001018054600181600116156101000203166002900480601f0160208091040260200160405190810160405280929190818152602001828054600181600116156101000203166002900480156105715780601f1061054657610100808354040283529160200191610571565b820191906000526020600020905b81548152906001019060200180831161055457829003601f168201915b5050505050908060020160009054906101000a900460ff16908060020160019054906101000a900460ff16905084565b60005481565b6060806000546040519080825280602002602001820160405280156105db5781602001602082028038833980820191505090505b509050600080905060008090505b60005481101561066857600015156001600083815260200190815260200160002060020160019054906101000a900460ff161515141561065b57600160008281526020019081526020016000206000015483838151811061064657fe5b60200260200101818152505081806001019250505b80806001019150506105e9565b5060608160405190808252806020026020018201604052801561069a5781602001602082028038833980820191505090505b50905060008090505b828110156106e4578381815181106106b757fe5b60200260200101518282815181106106cb57fe5b60200260200101818152505080806001019150506106a3565b5080935050505090565b828054600181600116156101000203166002900490600052602060002090601f016020900481019282601f1061072f57805160ff191683800117855561075d565b8280016001018555821561075d579182015b8281111561075c578251825591602001919060010190610741565b5b50905061076a919061076e565b5090565b61079091905b8082111561078c576000816000905550600101610774565b5090565b9056fea165627a7a72305820f1cbf04ed8015b92a4a0642bceb277e7165ec146a434e70e9795c44e8775c63e0029",
  "source": "pragma solidity ^0.5.0;\n\ncontract TodoList {\n    uint public taskCount = 0;\n\n    struct Task {\n        uint id;\n        string content;\n        bool completed;\n        bool deleted;\n    }\n\n    mapping(uint => Task) public tasks;\n    event TaskCreated (\n      uint id,\n      string content,\n      bool completed,\n      bool deleted\n    );\n\n    function createTask(string memory _content) public {\n        tasks[taskCount] = Task(taskCount, _content, false, false);\n        emit TaskCreated(taskCount, _content, false, false);\n        taskCount++;\n    }\n\n    function getListIDs() public view returns (uint[] memory) {\n      uint[] memory taskIDs = new uint[](taskCount);\n      uint numberTasks = 0;\n\n      for(uint i = 0; i < taskCount; i++){\n        if(tasks[i].deleted == false){\n          taskIDs[numberTasks] = tasks[i].id;\n          numberTasks++;\n        }\n      }\n\n      uint[] memory resultIDs = new uint[](numberTasks);\n      for(uint j = 0; j < numberTasks; j++){\n        resultIDs[j] = taskIDs[j];\n      }\n      return resultIDs;\n    }\n\n    function toggleCompleted(uint _id) public {\n      tasks[_id].completed = !tasks[_id].completed;\n    }\n\n    function deleteTodo(uint _id) public {\n      tasks[_id].deleted = true;\n    }\n\n    constructor() public {\n        createTask(\"Build todo dapp\");\n    }\n}",
  "sourcePath": "/Users/beacon/lambda/pmgroup/ethTodo/contracts/TodoList.sol",
  "compiler": {
    "name": "solc",
    "version": "0.5.8+commit.23d335f2.Emscripten.clang"
  },
  "schemaVersion": "3.0.11",
  "updatedAt": "2019-07-11T14:40:36.473Z",
  "devdoc": {
    "methods": {}
  },
  "userdoc": {
    "methods": {}
  }
}