{
  "contractName": "TodoList",
  "abi": [
    {
      "constant": true,
      "inputs": [
        {
          "name": "",
          "type": "uint256"
        }
      ],
      "name": "tasks",
      "outputs": [
        {
          "name": "id",
          "type": "uint256"
        },
        {
          "name": "content",
          "type": "string"
        },
        {
          "name": "completed",
          "type": "bool"
        },
        {
          "name": "deleted",
          "type": "bool"
        }
      ],
      "payable": false,
      "stateMutability": "view",
      "type": "function"
    },
    {
      "constant": true,
      "inputs": [],
      "name": "taskCount",
      "outputs": [
        {
          "name": "",
          "type": "uint256"
        }
      ],
      "payable": false,
      "stateMutability": "view",
      "type": "function"
    },
    {
      "inputs": [],
      "payable": false,
      "stateMutability": "nonpayable",
      "type": "constructor"
    },
    {
      "anonymous": false,
      "inputs": [
        {
          "indexed": false,
          "name": "id",
          "type": "uint256"
        },
        {
          "indexed": false,
          "name": "content",
          "type": "string"
        },
        {
          "indexed": false,
          "name": "completed",
          "type": "bool"
        },
        {
          "indexed": false,
          "name": "deleted",
          "type": "bool"
        }
      ],
      "name": "TaskCreated",
      "type": "event"
    },
    {
      "constant": false,
      "inputs": [
        {
          "name": "_content",
          "type": "string"
        }
      ],
      "name": "createTask",
      "outputs": [],
      "payable": false,
      "stateMutability": "nonpayable",
      "type": "function"
    },
    {
      "constant": true,
      "inputs": [],
      "name": "getListIDs",
      "outputs": [
        {
          "name": "",
          "type": "uint256[]"
        }
      ],
      "payable": false,
      "stateMutability": "view",
      "type": "function"
    },
    {
      "constant": false,
      "inputs": [
        {
          "name": "_id",
          "type": "uint256"
        }
      ],
      "name": "toggleCompleted",
      "outputs": [],
      "payable": false,
      "stateMutability": "nonpayable",
      "type": "function"
    }
  ],
  "bytecode": "0x60806040526000805534801561001457600080fd5b506100596040518060400160405280600f81526020017f4275696c6420746f646f2064617070000000000000000000000000000000000081525061005e60201b60201c565b61027d565b604051806080016040528060005481526020018281526020016000151581526020016000151581525060016000805481526020019081526020016000206000820151816000015560208201518160010190805190602001906100c19291906101d8565b5060408201518160020160006101000a81548160ff02191690831515021790555060608201518160020160016101000a81548160ff0219169083151502179055509050507fd3b5ebbcee14df18f4cab0dc4d660788f6a8d81c06f14b96a8942de3e730f5186000548260008060405180858152602001806020018415151515815260200183151515158152602001828103825285818151815260200191508051906020019080838360005b8381101561018757808201518184015260208101905061016c565b50505050905090810190601f1680156101b45780820380516001836020036101000a031916815260200191505b509550505050505060405180910390a1600080815480929190600101919050555050565b828054600181600116156101000203166002900490600052602060002090601f016020900481019282601f1061021957805160ff1916838001178555610247565b82800160010185558215610247579182015b8281111561024657825182559160200191906001019061022b565b5b5090506102549190610258565b5090565b61027a91905b8082111561027657600081600090555060010161025e565b5090565b90565b6106d88061028c6000396000f3fe608060405234801561001057600080fd5b50600436106100575760003560e01c8063111002aa1461005c578063455f5024146101175780638d97767214610145578063b6cb58a514610209578063dda3d92614610227575b600080fd5b6101156004803603602081101561007257600080fd5b810190808035906020019064010000000081111561008f57600080fd5b8201836020820111156100a157600080fd5b803590602001918460018302840111640100000000831117156100c357600080fd5b91908080601f016020809104026020016040519081016040528093929190818152602001838380828437600081840152601f19601f820116905080830192505050505050509192919290505050610286565b005b6101436004803603602081101561012d57600080fd5b8101908080359060200190929190505050610400565b005b6101716004803603602081101561015b57600080fd5b8101908080359060200190929190505050610455565b60405180858152602001806020018415151515815260200183151515158152602001828103825285818151815260200191508051906020019080838360005b838110156101cb5780820151818401526020810190506101b0565b50505050905090810190601f1680156101f85780820380516001836020036101000a031916815260200191505b509550505050505060405180910390f35b610211610537565b6040518082815260200191505060405180910390f35b61022f61053d565b6040518080602001828103825283818151815260200191508051906020019060200280838360005b83811015610272578082015181840152602081019050610257565b505050509050019250505060405180910390f35b604051806080016040528060005481526020018281526020016000151581526020016000151581525060016000805481526020019081526020016000206000820151816000015560208201518160010190805190602001906102e9929190610607565b5060408201518160020160006101000a81548160ff02191690831515021790555060608201518160020160016101000a81548160ff0219169083151502179055509050507fd3b5ebbcee14df18f4cab0dc4d660788f6a8d81c06f14b96a8942de3e730f5186000548260008060405180858152602001806020018415151515815260200183151515158152602001828103825285818151815260200191508051906020019080838360005b838110156103af578082015181840152602081019050610394565b50505050905090810190601f1680156103dc5780820380516001836020036101000a031916815260200191505b509550505050505060405180910390a1600080815480929190600101919050555050565b6001600082815260200190815260200160002060020160009054906101000a900460ff16156001600083815260200190815260200160002060020160006101000a81548160ff02191690831515021790555050565b6001602052806000526040600020600091509050806000015490806001018054600181600116156101000203166002900480601f0160208091040260200160405190810160405280929190818152602001828054600181600116156101000203166002900480156105075780601f106104dc57610100808354040283529160200191610507565b820191906000526020600020905b8154815290600101906020018083116104ea57829003601f168201915b5050505050908060020160009054906101000a900460ff16908060020160019054906101000a900460ff16905084565b60005481565b6060806000546040519080825280602002602001820160405280156105715781602001602082028038833980820191505090505b50905060008090506000600190505b60005481116105fe57600015156001600083815260200190815260200160002060020160019054906101000a900460ff16151514156105f15760016000828152602001908152602001600020600001548383815181106105dc57fe5b60200260200101818152505081806001019250505b8080600101915050610580565b50819250505090565b828054600181600116156101000203166002900490600052602060002090601f016020900481019282601f1061064857805160ff1916838001178555610676565b82800160010185558215610676579182015b8281111561067557825182559160200191906001019061065a565b5b5090506106839190610687565b5090565b6106a991905b808211156106a557600081600090555060010161068d565b5090565b9056fea165627a7a72305820a638121e318086de015e3ef5d34fd76232b91d365db9f4838026754ef49145200029",
  "source": "pragma solidity ^0.5.0;\n\ncontract TodoList {\n    uint public taskCount = 0;\n\n    struct Task {\n        uint id;\n        string content;\n        bool completed;\n        bool deleted;\n    }\n\n    mapping(uint => Task) public tasks;\n    event TaskCreated (\n      uint id,\n      string content,\n      bool completed,\n      bool deleted\n    );\n\n    function createTask(string memory _content) public {\n        tasks[taskCount] = Task(taskCount, _content, false, false);\n        emit TaskCreated(taskCount, _content, false, false);\n        taskCount++;\n    }\n\n    function getListIDs() public view returns (uint[] memory) {\n      uint[] memory taskIDs = new uint[](taskCount);\n      uint numberTasks = 0;\n\n      for(uint i = 1; i <= taskCount; i++){\n        if(tasks[i].deleted == false){\n          taskIDs[numberTasks] = tasks[i].id;\n          numberTasks++;\n        }\n      }\n      return taskIDs;\n    }\n\n    function toggleCompleted(uint _id) public {\n      tasks[_id].completed = !tasks[_id].completed;\n    }\n\n    constructor() public {\n        createTask(\"Build todo dapp\");\n    }\n}",
  "sourcePath": "/Users/beacon/lambda/pmgroup/ethTodo/contracts/TodoList.sol",
  "compiler": {
    "name": "solc",
    "version": "0.5.8+commit.23d335f2.Emscripten.clang"
  },
  "schemaVersion": "3.0.11",
  "updatedAt": "2019-07-11T14:14:58.125Z",
  "devdoc": {
    "methods": {}
  },
  "userdoc": {
    "methods": {}
  }
}